:020000040800F2
:10000000E82500209D0B0008A10B0008A30B0008A9
:10001000A50B0008A70B0008A90B0008AB0B0008F4
:10002000AB0B0008AB0B0008AB0B0008AB0B0008D8
:10003000AB0B0008AB0B0008679B000813350008EA
:10004000E7050008F1050008FB05000805060008A3
:100050000F06000819060008230600082D060008F0
:1000600037060008410600084B0600085506000840
:100070005F06000869060008730600087D06000890
:1000800087060008910600089B060008A5060008E0
:10009000AF060008B9060008C3060008CD06000830
:1000A000D7060008E1060008EB060008F506000880
:1000B000FF06000809070008130700081D070008CD
:1000C00027070008310700083B070008450700081C
:1000D0004F07000859070008630700086D0700086C
:1000E00077070008810700088B07000895070008BC
:1000F0009F070008A9070008B3070008BD0700080C
:10010000C7070008D1070008DB070008E50700085B
:10011000EF070008F9070008030800080D080008A9
:1001200017080008DFF80CD009F0FAFC0048004777
:100130001B020008E82500207047704788B000F0D7
:10014000D4F801F015F900F007F9044647480068B3
:10015000B4FBF0F5284603F0F6F901F0F7FB01F0E7
:10016000C9FB07A806F032F8FFF7E7FFFFF7E4FF47
:100170003F49062000F0DBF900208DF809008DF8DA
:1001800008004FF4A06003900120049001218DF835
:10019000161000218DF8141008218DF81510062076
:1001A0008DF8180004218DF819108DF81A1001210E
:1001B0008DF81B1002A800F04DF901202D490870A0
:1001C0002AE0002000F009F9022000F0E9F807A871
:1001D00000210B460122CDE90010084607F0B3FDCF
:1001E000012000F0DDF824480068401C2249086026
:1001F00007A800210B460122CDE90010084607F0B0
:10020000A2FD1C48007838B100201A49087001F09E
:10021000AFF807A805F054FFD3E700B58BB0002076
:100220001549086000F075F90AA803F015FA0AA844
:10023000032100220592CDE9062108901146802273
:100240000E48006B0D4BCDE90130CDE903210220B2
:1002500000230B4A0BA100900E4806F008FB0AA8E9
:1002600003F0C3FC00200BB000BD0000DC9D0008C3
:10027000210800080000002004000020B001002038
:100280003D010008417070205461736B205374610C
:1002900072740000EC0000201CB5002000F064FB2C
:1002A0000120009000208DF804008DF80700032045
:1002B0008DF8050069468C4808F0CCFE1CBD1CB5C5
:1002C000012000F051FBC020009001208DF80400B7
:1002D00000208DF806008DF8070003208DF805003A
:1002E0006946824808F0B6FE1CBD10B500F053F90F
:1002F00009F00CF8012009F02EF8012008F006FBA7
:10030000012008F0F4FA012008F0E8FA01210807BA
:1003100009F08EF94FF4006008F076FF00BF10205E
:1003200008F0DCFF0028FAD109F09DF8002009F060
:10033000AEF8002009F0A1F880221021012009F078
:100340006AF8012009F06FF8032009F07CF8FFF744
:10035000B6FFFFF7A1FF10BD1FB5684609F0A2F870
:10036000019804B010BD10B50446052C13D2DFE887
:1003700004F003080D131400C0215C4808F0DCFEF3
:100380000CE04021594808F0D7FE07E0802157488B
:1003900008F0D2FE02E000BF00BF00BF00BF10BDEA
:1003A00010B50446052C13D2DFE804F003080D1342
:1003B0001400C0214D4808F0C1FE0CE040214B481C
:1003C00008F0BCFE07E08021484808F0B7FE02E0D4
:1003D00000BF00BF00BF00BF10BD70B50546052DB2
:1003E00033D2DFE805F0030E203334003F4808F035
:1003F000A0FE044684F0C00440213C4808F09CFE66
:1004000026E03A4808F095FE044684F0010404F022
:100410004001364808F090FE402020EA04013348AD
:1004200008F08CFE14E0314808F083FE044684F0A6
:10043000020404F080012D4808F07EFE802020EAAE
:1004400004012A4808F07AFE02E000BF00BF00BFA6
:1004500000BF70BD10B504466178207809F0CDF971
:1004600004F1080008F0BDF9606808F039F904F1FA
:10047000100008F03AF90121084609F0C8F810BD4B
:1004800010B5FFF769FF04461948006840F0807016
:10049000174908600020174948600846006840F086
:1004A00001000860204600F0D3FF10BD11494868E4
:1004B00070472DE9F0478246FFF74EFF4FF00009E5
:1004C00080460D4A00234046494609F0D9FA0646BF
:1004D00032460B465046002109F0D2FA04460D463A
:1004E00020462946BDE8F087000002400004024093
:1004F000FCED00E0001000E040420F00704710B536
:100500000446392C04D204F11000C0B200F08CFB78
:1005100010BD10B501F094F810BD10B50446392C8B
:1005200004D204F11000C0B200F023FC10BD70B57D
:1005300004460D460026392C10D200BF00BF01F042
:1005400083F8064600BF00BFBD4840F8245000BFF6
:1005500000BF304601F07CF800BF00BF70BD70B531
:1005600004460D460026392C13D200BF00BF01F00F
:100570006BF8064600BF00BF294604F11000C0B268
:1005800000F0EFFC00BF00BF304601F061F800BF93
:1005900000BF70BD704710B5002404E0A949204693
:1005A000FFF7C5FF641C392CF8D310BD70B50446A5
:1005B000002600BF00BF01F047F8064600BF00BF9D
:1005C00003F0DAF800BF00BF304601F041F800BF89
:1005D00000BF392C04D29A4850F8245005B1A847DE
:1005E00003F0DBF870BD10B50020FFF7DFFF10BD92
:1005F00010B50120FFF7DAFF10BD10B50220FFF79C
:10060000D5FF10BD10B50320FFF7D0FF10BD10B50A
:100610000420FFF7CBFF10BD10B50520FFF7C6FF84
:1006200010BD10B50620FFF7C1FF10BD10B50720A3
:10063000FFF7BCFF10BD10B50820FFF7B7FF10BDD6
:1006400010B50920FFF7B2FF10BD10B50A20FFF763
:10065000ADFF10BD10B50B20FFF7A8FF10BD10B502
:100660000C20FFF7A3FF10BD10B50D20FFF79EFF74
:1006700010BD10B50E20FFF799FF10BD10B50F206B
:10068000FFF794FF10BD10B51020FFF78FFF10BDCE
:1006900010B50B20FFF78AFF10BD10B51220FFF731
:1006A00085FF10BD10B51320FFF780FF10BD10B5FA
:1006B0001420FFF77BFF10BD10B51520FFF776FF64
:1006C00010BD10B51620FFF771FF10BD10B5172033
:1006D000FFF76CFF10BD10B51820FFF767FF10BDC6
:1006E00010B51920FFF762FF10BD10B51A20FFF7F3
:1006F0005DFF10BD10B51B20FFF758FF10BD10B5F2
:100700001C20FFF753FF10BD10B51D20FFF74EFF53
:1007100010BD10B51E20FFF749FF10BD10B51F20FA
:10072000FFF744FF10BD10B52020FFF73FFF10BDBD
:1007300010B52120FFF73AFF10BD10B52220FFF7BA
:1007400035FF10BD10B52320FFF730FF10BD10B5E9
:100750002420FFF72BFF10BD10B52520FFF726FF43
:1007600010BD10B52620FFF721FF10BD10B52720C2
:10077000FFF71CFF10BD10B52820FFF717FF10BDB5
:1007800010B52920FFF712FF10BD10B52A20FFF782
:100790000DFF10BD10B52B20FFF708FF10BD10B5E1
:1007A0002C20FFF703FF10BD10B52D20FFF7FEFE34
:1007B00010BD10B52E20FFF7F9FE10BD10B52F208B
:1007C000FFF7F4FE10BD10B53020FFF7EFFE10BDAF
:1007D00010B53120FFF7EAFE10BD10B53220FFF74B
:1007E000E5FE10BD10B53320FFF7E0FE10BD10B5DB
:1007F0003420FFF7DBFE10BD10B53520FFF7D6FE25
:1008000010BD10B53620FFF7D1FE10BD10B5372052
:10081000FFF7CCFE10BD10B53820FFF7C7FE10BDA6
:1008200010B50220FFF79FFD012008F051F80620C7
:1008300001218140044A430942F8231000BF10BD42
:10084000B00300209505000880E200E070B5064680
:10085000FFF782FD05462E2E54D027DC182E45D0FA
:100860000BDC102E7ED2DFE806F03738393A3B3CFD
:100870003D3E7D7D7D7D3F7D7D40232E3DD00CDC4A
:100880001E2E36D004DC192E31D01B2E6AD12FE05B
:10089000202E30D0222E65D12EE0242E2ED0292ECF
:1008A0002DD02B2E2CD02C2E5CD12AE0A6F140008E
:1008B000202857D2DFE800F034353637383956561D
:1008C000563A563B56563C3D563E3F4041424344C5
:1008D000565656564546564700BF00BF00BF00BF9C
:1008E00000BF00BF00BF00BF00BF00BF00BF00BF10
:1008F00000BF284670BD00BF00BF00BF00BF00BFE3
:1009000000BF00BFA4480068C0F3C224042C01D279
:100910002846EFE7E01E4400B5FBF4F52846E9E77A
:1009200000BF00BF00BF00BF00BF00BF00BF00BFCF
:1009300000BF00BF00BF00BF00BF00BF00BF00BFBF
:1009400000BF00BF00BF94480068C0F30224042C1D
:1009500002D22846CEE705E0E01E4400B5FBF4F5E0
:100960002846C7E70020C5E72E285CD027DC1828DA
:1009700045D00BDC10284ED2DFE800F03738393A8A
:100980003B3C3D3E808080803F808040232845D096
:100990000CDC1E2836D004DC192831D01B286DD180
:1009A0002FE0202838D0222868D136E0242836D0FD
:1009B000292835D02B2834D02C285FD132E0A0F163
:1009C000400120295AD2DFE801F03A3B3C3D3E3F4E
:1009D0005959594059415959424359444546474844
:1009E000494A595959594B4C594D00BF00BF00BF96
:1009F00000BF00BF00BF00BF00BF00BF00BF00BFFF
:100A000000BF00BF644914310A68012181400A43D4
:100A1000614914310A6031E000BF00BF00BF00BF70
:100A200000BF00BF00BF5C4918310968A0F1200277
:100A3000012393401943584A183211601EE000BF49
:100A400000BF00BF00BF00BF00BF00BF00BF00BFAE
:100A500000BF00BF00BF00BF00BF00BF00BF00BF9E
:100A600000BF00BF4C491C310968A0F140020123BE
:100A700093401943484A1C32116000BF00BF7047C1
:100A80002E285CD027DC182845D00BDC10284ED24D
:100A9000DFE800F03738393A3B3C3D3E80808080CB
:100AA0003F808040232845D00CDC1E2836D004DC53
:100AB000192831D01B286DD12FE0202838D02228CA
:100AC00068D136E0242836D0292835D02B2834D0D8
:100AD0002C285FD132E0A0F1400120295AD2DFE872
:100AE00001F03A3B3C3D3E3F595959405941595913
:100AF0004243594445464748494A595959594B4C2C
:100B0000594D00BF00BF00BF00BF00BF00BF00BF06
:100B100000BF00BF00BF00BF00BF00BF1E491431AF
:100B20000A68012181408A431B4914310A6031E07F
:100B300000BF00BF00BF00BF00BF00BF00BF16491D
:100B400018310968A0F12002012393409943124A09
:100B5000183211601EE000BF00BF00BF00BF00BF21
:100B600000BF00BF00BF00BF00BF00BF00BF00BF8D
:100B700000BF00BF00BF00BF00BF00BF06491C315F
:100B80000968A0F14002012393409943024A1C32B4
:100B9000116000BF00BF704708380240044800479A
:100BA000FEE7FEE7FEE7FEE7FEE7FEE7FEE7000002
:100BB0002501000810B5B0F1005F0AD3F84CA0423F
:100BC00007D8440104EB810303F1085200241460A8
:100BD0000CE0B0F1804F09D3F24CA04206D844019A
:100BE00004EB810303F184420024146010BD10B5AE
:100BF000B0F1005F0AD3EA4CA04207D8440104EBED
:100C0000810303F10852012414600CE0B0F1804F1D
:100C100009D3E44CA04206D8440104EB810303F15C
:100C200084420124146010BD2DE9F04104464FF0C8
:100C30000008102C6BD2DFE804F0080E0F10142906
:100C40003E090A0B0C11120D135300BF00BF00BF69
:100C500000BF00BF8AE000BF00BF00BF00BF00BFF1
:100C600084E000BF00BF00F0EFFC804600BF00BF83
:100C7000CD48006820F48030CB49086000BF00BF39
:100C8000404600F0E5FC00BF00BF6FE000BF00BFC2
:100C900000F0DAFC804600BF00BFC348006820F4C3
:100CA0000030C149086000BF00BF404600F0D0FCE2
:100CB00000BF00BF5AE000BF00BF00F0C5FC804687
:100CC00000BF00BFB848006820F48020B649086023
:100CD00000BF00BF404600F0BBFC00BF00BF45E0C6
:100CE00000BF00BF00F0B0FC804600BF00BF4FF067
:100CF000E020006920F001004FF0E021086100BF12
:100D000000BF404600F0A4FC00BF00BF2EE04FF043
:100D1000E0204068401C102101EB4010C6B2B442F4
:100D200023DAA4F11000C11700EBD161C1F347151C
:100D3000C11700EBD1614911A0EB4111CFB200BF47
:100D400000BF00F081FC804600BF00BF0120B8401A
:100D50004FF0E02101EB8501C1F8800100BF00BF29
:100D6000404600F075FC00BF00BF00BF00BFBDE8FB
:100D7000F0812DE9F04104464FF00008102C6BD2B1
:100D8000DFE804F0080E0F1014293E090A0B0C11BD
:100D9000120D135300BF00BF00BF00BF00BF8AE0A9
:100DA00000BF00BF00BF00BF00BF84E000BF00BFA6
:100DB00000F04AFC804600BF00BF7B48006840F45A
:100DC00080307949086000BF00BF404600F040FC19
:100DD00000BF00BF6FE000BF00BF00F035FC8046E1
:100DE00000BF00BF7048006840F400306E490860E2
:100DF00000BF00BF404600F02BFC00BF00BF5AE020
:100E000000BF00BF00F020FC804600BF00BF664866
:100E1000006840F480206449086000BF00BF40467D
:100E200000F016FC00BF00BF45E000BF00BF00F0AF
:100E30000BFC804600BF00BF4FF0E020006940F08F
:100E400001004FF0E021086100BF00BF404600F004
:100E5000FFFB00BF00BF2EE04FF0E0204068401CC9
:100E6000102101EB4010C7B2BC4223DAA4F11000FC
:100E7000C11700EBD161C1F34715C11700EBD16178
:100E80004911A0EB4111CEB200BF00BF00F0DCFB66
:100E9000804600BF00BF0120B0404FF0E02101EBD1
:100EA0008501C1F8000100BF00BF404600F0D0FB43
:100EB00000BF00BF00BF00BFBDE8F0812DE9F041D9
:100EC00004464FF00008102C19D2DFE804F0080E99
:100ED0000F10111516090A0B0C12130D141700BF71
:100EE00000BF00BF00BF00BF38E000BF00BF00BFB1
:100EF00000BF00BF00BF00BF00BF00BF2EE04FF02B
:100F0000E0204068401C102101EB4010C7B2BC42F9
:100F100023DAA4F11000C11700EBD161C1F347152A
:100F2000C11700EBD1614911A0EB4111CEB200BF56
:100F300000BF00F089FB804600BF00BF0120B04029
:100F40004FF0E02101EB8501C1F8800200BF00BF36
:100F5000404600F07DFB00BF00BF00BF00BFBDE802
:100F6000F0812DE9F05F06460D464FF0000B284654
:100F700000F07DFB82464FEA1A65102E71D2DFE841
:100F800006F008151617182D43090A0B0C59710D98
:100F9000879E00BF00BF00BF00BF00BFDFE00000B2
:100FA000FFFF0F20FFFF0F4024ED00E000BF00BF58
:100FB000D5E000BF00BF00F047FB834600BF00BF85
:100FC000D848046824F0FF042C43046000BF00BF2D
:100FD000584600F03DFB00BF00BFC0E000BF00BFAF
:100FE00000F032FB834600BF00BFCE48046824F403
:100FF0007F4444EA0524046000BF00BF584600F067
:1010000027FB00BF00BFAAE000BF00BF00F01CFB31
:10101000834600BF00BFC348046824F47F0444EA49
:101020000544046000BF00BF584600F011FB00BF3C
:1010300000BF94E000BF00BF00F006FB834600BF86
:1010400000BFB848001D046824F07F4444EA0564EA
:10105000046000BF00BF584600F0FAFA00BF00BFAE
:101060007DE043E000BF00BF00F0EEFA834600BF22
:1010700000BFAC480830046824F0FF042C4304602F
:1010800000BF00BF584600F0E3FA00BF00BF66E0B3
:1010900000BF00BF00F0D8FA834600BF00BFA148E0
:1010A0000830046824F47F0444EA0544046000BF67
:1010B00000BF584600F0CCFA00BF00BF4FE000BFB1
:1010C00000BF00F0C1FA834600BF00BF954808305A
:1010D000046824F07F4444EA0564046000BF00BF54
:1010E000584600F0B5FA00BF00BF38E04FF0E020EE
:1010F0004068401C102101EB401000F0FF094E45F4
:101100002CDAA6F11000C11700EB9171C1F387072B
:10111000C11700EB91718910A0EB810101F0FF086C
:1011200000BF00BF00F090FA834600BF00BF7E48BA
:1011300050F827404FEAC801FF20884084434FEA17
:10114000C80105FA01F00443774840F8274000BF82
:1011500000BF584600F07CFA00BF00BF00BF00BFD0
:10116000BDE8F09F2DE9F05F06464FF0000B102E12
:1011700070D2DFE806F0080F1215182A3D090A0B95
:101180000C495C0D708400BF00BF00BF00BF00BFF2
:10119000664CBAE06FF00204B7E06FF00104B4E00F
:1011A0004FF0FF34B1E000BF00BF00F04DFA8346BE
:1011B00000BF00BF5B480568ECB200BF00BF5846E7
:1011C00000F046FA00BF00BF9FE000BF00BF00F084
:1011D0003BFA834600BF00BF52480568C5F30724A9
:1011E00000BF00BF584600F033FA00BF00BF8CE0DC
:1011F00000BF00BF00F028FA834600BF00BF494887
:101200000568C5F3074480E000BF00BF00F01CFA8A
:10121000834600BF00BF4348001D05682C0E00BF79
:1012200000BF584600F014FA00BF00BF6DE000BFD9
:1012300000BF00F009FA834600BF00BF39480830FC
:101240000568ECB200BF00BF584600F001FA00BFCD
:1012500000BF5AE026E000BF00BF00F0F5F983466A
:1012600000BF00BF2F4808300568C5F3074400BF22
:1012700000BF584600F0ECF900BF00BF45E000BFDA
:1012800000BF00F0E1F9834600BF00BF25480830E9
:1012900005682C0E00BF00BF584600F0D9F900BF0A
:1012A00000BF32E04FF0E0204068401C102101EB0D
:1012B000401000F0FF0A564525DAA6F11000C117CC
:1012C00000EB9171C1F38707C11700EB9171891091
:1012D000A0EB810101F0FF0900BF00BF00F0B4F9ED
:1012E000834600BF00BF104850F8275000BF00BF22
:1012F000584600F0ADF900BF00BF4FEAC90025FA1B
:1013000000F0C4B200E0094C00BF00BF002C05DBB8
:10131000204600F0ACF980464FEA18642046BDE84C
:10132000F09F000018ED00E000E400E00080FFFF07
:1013300010B5002400BF00BF00F086F9044600BFCE
:1013400000BF1021BB4800F04DFB00BF00BF20468E
:1013500000F07EF900BF00BF10BD10B5FFF7E8FF39
:1013600010BD10B50020B4490860FFF789F810BD22
:1013700010B5FFF7F6FFFFF7F0FF10BD00BFFEE767
:1013800070B505460C46002614B900BFFFF7F6FFFE
:1013900015B90A20208070BD00BF00BF00F054F9CD
:1013A000064600BF00BF1022A249284601F040FABD
:1013B00000BF00BF304600F04BF900BF00BF002067
:1013C000208000BFE7E72DE9F04105460C460027E5
:1013D00014B900BFFFF7D2FF1DB90A202080BDE875
:1013E000F0811021284601F00BFA0646102E15D286
:1013F00000BF00BF00F028F9074600BF00BF102261
:1014000029468C4801F014FA00BF00BF384600F0AE
:101410001FF900BF00BF0020208002E04FF47A7067
:10142000208000BFDBE710B5FFF740F804462046F8
:1014300010BD7047014611B900BFFFF79FFF7E4AFC
:10144000106808B1002201E04FF4FA620A80704788
:1014500079490860704770B50546284600F0FFF8E6
:101460000446183C204670BD70B50546284600F07D
:10147000F6F80446103C204670BD70B50546284677
:1014800000F0EDF8044600BF204670BD2DE9F04F96
:101490008BB004460D464FF0FF314FF00000091BA2
:1014A000A84143D24FF0FF31080C091BA8411DD2BF
:1014B0004FF0FF31080A091BA8410AD23822A04682
:1014C000A9464046494608F00CFB06465B498F5D3D
:1014D00069E03022A246AB465046594608F001FB6F
:1014E00006465649885D00F108075CE04FF0FF3181
:1014F000FF20091BA8410CD2282220462946CDE90D
:10150000015408F0EEFA06464C49885D00F11007D8
:1015100049E0202220462946CDE9035408F0E1FAAB
:1015200006464649885D00F118073CE04FF6FF711A
:101530000020091BA8411FD26FF07F410020091B2A
:10154000A8410CD2182220462946CDE9055408F0BE
:10155000C8FA06463949885D00F1200723E01022C9
:1015600020462946CDE9075408F0BBFA0646334920
:10157000885D00F1280716E0FF210020091BA84123
:101580000CD2082220462946CDE9095408F0A9FAD0
:1015900006462A49885D00F1300704E026462748C0
:1015A000805D00F1380738460BB0BDE8F08F70B5AC
:1015B00004460CB9082070BD204600F053F80546DB
:1015C0002846F8E770B504460CB9102070BD2046D7
:1015D00000F048F805462846F8E770B504460CB90F
:1015E000202070BD204600F03DF805462846F8E76B
:1015F0002DE9F04704460D464FF0000184EA010052
:1016000085EA0101084302D14020BDE8F087E243AA
:10161000E843521C40F1000102EA040601EA050712
:1016200030463946FFF732FF8046C8F13F09484649
:10163000EBE700009404002008000020E69B00086F
:1016400072B6704762B67047EFF3108072B670479B
:1016500080F31088704730BF704720BF7047B0FAE2
:1016600080F0704790FAA0F0B0FA80F0704790FADE
:10167000A0F070470146412903DB5A2901DC012211
:1016800000E00022012A08D0612903DB7A2901DC6D
:10169000012200E00022012A01D1012200E0002203
:1016A000104670470146412903DB5A2901DC01221B
:1016B00000E00022012A08D0612903DB7A2901DC3D
:1016C000012200E00022012A01D1012200E00022D3
:1016D000012A08D0302903DB392901DC012200E08E
:1016E0000022012A01D1012200E0002210467047A9
:1016F0000146612903DB7A2901DC012200E0002296
:10170000104670470146412903DB5A2901DC0122BA
:1017100000E00022104670470146302903DB3929DA
:1017200001DC012200E0002210467047014630290A
:1017300003DB372901DC012200E00022104670475C
:101740000146302901DB392907DD412901DB462922
:1017500003DD612903DB662901DC012200E00022B0
:10176000104670470146202901D0092901D10122E4
:1017700000E00022104670470146202909D00D29BB
:1017800007D00A2905D00C2903D0092901D00B293B
:1017900001D1012200E000221046704701462029B5
:1017A00003DB7E2901DC012200E0002210467047A5
:1017B0000146212903DB7E2901DC012200E0002211
:1017C000104670470146202903DB7E2901DC0122F7
:1017D00000E00022012A35D1202909D00D2907D0A7
:1017E0000A2905D00C2903D0092901D00B2901D1E0
:1017F000012200E000222ABB412903DB5A2901DC37
:10180000012200E00022012A08D0612903DB7A29A5
:1018100001DC012200E00022012A01D1012200E0C6
:101820000022012A08D0302903DB392901DC0122FA
:1018300000E00022012A01D1012200E000220AB9C1
:10184000012200E000221046704701464AB2002AF9
:1018500001DB1F2901DD7F2901D1012200E00022E7
:10186000104670470146412903DB5A2901DC012259
:1018700000E00022012A02D101F1200200E00A4624
:10188000D0B270470146612903DB7A2901DC0122CD
:1018900000E00022012A02D1A1F1200200E00A4664
:1018A000D0B27047F0B504460B462046FFF7EAFF7A
:1018B00005461846FFF7E6FF0646B54201D101206E
:1018C00000E0002007463846F0BD000070B5044631
:1018D000002500BF00BFFFF7B7FE054600BF00BFF1
:1018E0001848046000BF00BF2846FFF7B1FE00BFE4
:1018F00000BF70BD10B50120FFF7E8FF10BD014625
:1019000043F23902104B03FB012222F000407047E2
:1019100070B5002600BF00BFFFF796FE064600BF69
:1019200000BF084805682846FFF7E9FF0446054858
:10193000046000BF00BF3046FFF78AFE00BF00BF53
:10194000204670BD0C0000206D4EC641FD48FE498A
:1019500001600146416000218160C1600161416117
:101960008161C16101620163C1624162F7498163C2
:10197000C1634FF40061016441640146F44A11609F
:1019800070472DE9F04103460C4617460FB9BDE8F4
:10199000F08103B9FBE70025002202E02D02254378
:1019A000521C042AFAD3384603F0030C1946BCF142
:1019B000000F08D0624603E001F8014B401E521CA4
:1019C00008B1042AF8D30E4601E020C6001F0428FF
:1019D000FBD2314602E001F8014B401E0028FAD14B
:1019E00000BFD4E730B505460C4622460021284604
:1019F000FFF7C7FF30BD2DE9F04F85B00746884699
:101A00009146B9F1000F02D105B0BDE8F08F07B9DA
:101A1000FAE7B8F1000F00D1F6E746463D46AE4280
:101A200005D94A464146384601F07EFBECE74C4674
:101A30003819451E08EB0400461EA81B04900498A4
:101A4000042834D305F00300029006F0030101914D
:101A5000DDE90110884201D1012000E00020009062
:101A60000098012823D10298032810D0029840B290
:101A7000039008E016F8010905F80109641E0398AF
:101A8000401E40B2039014B103980028F2DAA5F189
:101A90000C0AA6F10C0B04E05BF804094AF80409EF
:101AA000241F042CF8D20AF103050BF1030604E00D
:101AB00016F8010905F80109641E002CF8D100BFD1
:101AC000A2E72DE9F84F80468946154615B9012051
:101AD000BDE8F88FB8F1000F01D10020F8E7B9F1A7
:101AE000000F01D10020F3E70124294608EB05028D
:101AF00009EB050302F0030C03F0030BDC4501D1F5
:101B0000012000E0002000900098012829D1BCF1BC
:101B1000000F12D0E2460AE0521E5B1E107893F8C6
:101B200000E0704500D00024491EAAF1010A012CF2
:101B300003D111B1BAF1000FEED1012C11D116462B
:101B40001F4608E0361F3F1F3068D7F800E0704599
:101B500000D00024091F012C01D10429F2D2324601
:101B60003B4608E0521E5B1E107893F800E070457B
:101B700000D00024491E012C01D10029F2D12046B9
:101B8000A6E7F0B503460D461646DA6BB2FBF6F053
:101B900006FB102CBCF1000F02D0A6EB0C0400E0F9
:101BA00000246119586C884201D20020F0BDA14286
:101BB00001D3A94201D20020F8E75718974201D279
:101BC0000020F3E72244DF63586C401A5864104643
:101BD000ECE72DE9F04F81468C461C46B9FBF4F04A
:101BE00004FB109BBBF1000F02D0A4EB0B0600E03E
:101BF0000026B2FBF4F004FB102BBBF1000F02D067
:101C0000A4EB0B0300E00023D018ACF1010E00FBA5
:101C10000E60871806EB0208B04501D3904502D24A
:101C20000020BDE8F08FBCF1010F22D9D5189D42EC
:101C300001D3954201D20020F3E7ACF1010000FB93
:101C400005F1A94203D3994201D3914201D2002068
:101C5000E7E701EB020A8A4501D3924501D2002051
:101C6000DFE7474503D38F4201D3574501D2002018
:101C7000D7E73846D5E72DE9FE4F07468846154693
:101C80001C46002000901CB900BFFFF777FB00BF87
:101C90000DB901AD00BF002028602FB942F2747069
:101CA00020800020BDE8FE8FB8F1000F04D142F281
:101CB000757020800020F5E7DFF8889000BF00BF36
:101CC000FFF7C2FC009000BF00BFD9F83C000290B3
:101CD000D9F844B043463A4601210298FFF779FF0C
:101CE000064666B900BF00BF0098FFF7B1FC00BF11
:101CF00000BF2F6042F2E37020800020D2E75E45F3
:101D00000ED900BF00BF0098FFF7A2FC00BF00BFC4
:101D1000A6EB0B00286042F2E27020800020C1E7B1
:101D2000424639464846FFF72CFF8246BAF1000F7B
:101D300015D100BF00BF0098FFF78AFC00BF00BFAD
:101D40002E6007E0A404002048454150EC04002028
:101D50001000002042F2E27020800020A2E700BFC5
:101D600000BF0098FFF774FC00BF00BF42F2107084
:101D70002080504696E72DE9FC5F06460D46144646
:101D8000002000901CB900BFFFF7F8FA00BF2DB982
:101D900042F2757020800020BDE8FC9F26B942F217
:101DA000117020800020F7E700BF00BFFFF74CFC58
:101DB000009000BF00BFFE493068401808D0FD49C0
:101DC000401803D0FC49401801D100BF0CE000BF0F
:101DD00000BF00BF0098FFF73BFC00BF00BF42F20E
:101DE000887020800020D7E700BFD6F80490D9F88B
:101DF000380008B1484600E0F0488246DAF84470FE
:101E0000DAF83CB000BF00BF0098FFF721FC00BF2C
:101E100000BF012D0DD9BBFBF5F005FB10B8B8F1E3
:101E2000000F02D0A5EB080000E00020019001980F
:101E30003F1A42F2107020803846ADE770B5044674
:101E40000D462A462146DD48FFF795FF06463046F7
:101E500070BD70B504460D461DB900BFFFF78EFA80
:101E600000BF1CB942F21170288070BDD0484042BA
:101E7000206000206060A060E06020616061A0617F
:101E8000E0612062A06260632063E0626062A06340
:101E9000E0632064606442F21070288000BFE4E7D1
:101EA0002DE9FF4F91B00446DDE920950020009018
:101EB0001DB900BFFFF762FA00BFB9F1000F02D1F0
:101EC0000DF1100900BF0020C9F800002946204686
:101ED000FFF7BFFF2888A0F51C51103902D015B0BC
:101EE000BDE8F08F129828B1139818B942F27E70AD
:101EF0002880F4E7149818B942F292702880EEE72F
:101F00001E9818B942F293702880E8E71F9818B914
:101F100042F294702880E2E7A948006818B942F2BA
:101F2000E7702880DBE7A54810904FF0000A00BF5B
:101F300000BFFFF789FB009000BF00BF1298002888
:101F40005BD1109E109E0E96109E3746109EF06B31
:101F50000B9004231A4614990B98FFF73AFE03904E
:101F6000039850B900BF00BF0098FFF771FB00BF96
:101F700000BF42F2E3702880B1E703990B98084450
:101F80000A90DDE91E2314990A98FFF722FE834682
:101F9000BBF1000F0AD100BF00BF0098FFF758FB4C
:101FA00000BF00BF42F2E370288098E7039800EB7F
:101FB0000B0A0398824501D3DA450AD200BF00BF5D
:101FC0000098FFF745FB00BF00BF42F2E370288096
:101FD00085E71098D0F84480C2457DD900BF00BF86
:101FE0000098FFF735FB00BF00BFAAEB0800C9F857
:101FF000000042F2E270288071E712980990DDE952
:1020000012010844401E0890DDE9081081420AD2FE
:1020100000BF00BF0098FFF71BFB00BF00BF42F2EC
:10202000977028805BE7002600200E9064480768C0
:102030003AE0B96B1298814205D1396C139881420C
:1020400001D13E4632E0B86B0790396CB86B08445A
:10205000401E0690DDE90701814200D226E0079983
:102060000998884203D8DDE9071088420FD2079902
:102070000998884203D306990898884207D9069997
:10208000099888420ED80699089888420AD300BF5A
:1020900000BF0098FFF7DCFA00BF00BF42F27F707C
:1020A00028801CE70E97FF68002FC2D100BF46B9F9
:1020B00026461298A0631298E06313982064139840
:1020C00060641098C06B0B9004231A4614990B9807
:1020D000FFF77FFD039000E04CE0039850B900BF8C
:1020E00000BF0098FFF7B4FA00BF00BF42F2E370F0
:1020F0002880F4E61098D0F84480039840450FD922
:1021000000BF00BF0098FFF7A3FA00BF00BF03980D
:10211000A0EB0800C9F8000042F2E2702880DEE679
:10212000F06B0A90DDE91E2314990A98FFF751FD20
:102130008346BBF1000F0AD100BF00BF0098FFF734
:1021400087FA00BF00BF42F2D9702880C7E6D6F8F0
:102150004480C3450ED900BF00BF0098FFF778FA4E
:1021600000BF00BFABEB0800C9F8000042F2D87016
:102170002880B4E6149880000290042202991098F6
:10218000FFF7FFFC0D900D9878BB1098D0F84480B5
:1021900000BF00BF0098FFF75BFA00BF00BF1298B6
:1021A00098B9C2450ED9AAEB0800C9F8000018E09A
:1021B000B2B0B1BAFEFFFEF8080A0EFCA40400207B
:1021C00010000020C9F800A00BE00298404505D996
:1021D0000298A0EB0800C9F8000002E00298C9F8D4
:1021E000000042F2E270288079E6FFE700200190CB
:1021F00032E03046DDE91E12FFF7C3FC0C900C986C
:1022000010BBF06B0A90D6F8448000BF00BF009866
:10221000FFF71EFA00BF00BF01991498401A0590FD
:10222000DDE91E2305990A98FFF7D3FC8246C245D3
:1022300004D9AAEB0800C9F8000001E0C9F800A021
:1022400042F2D87028804AE6019ADDE90C0141F893
:1022500022000198401C0190149901988842C8D32B
:10226000A6420CD10E98A060E7600E9810B10E98AF
:10227000C46001E0FE4804605FB1BC6009E07069C1
:102280000F9026610F98606174610F9808B10F98E4
:102290000461F848206066600A98A0610A98584472
:1022A000401EE0610D982062C4F828B01F9860635A
:1022B0001E9820631498E0621498606200BF00BF0B
:1022C0000098FFF7C5F900BF00BF42F210702880E8
:1022D00000BF04E62DE9F04105460C4600271CB975
:1022E00000BFFFF74BF800BF2DB942F211702080FC
:1022F0000020BDE8F08100BF00BFFFF7A5F9074649
:1023000000BF00BFDC492868401808D0DB494018EE
:1023100003D0DB49401801D102E00DE000BF00BF4F
:1023200000BF00BF3846FFF793F900BF00BF42F27D
:10233000887020800020DCE700BF6E6A00BF00BF0D
:102340003846FFF785F900BF00BF42F210702080C9
:102350003046CEE72DE9F04104460E4615464FF0D3
:1023600000081DB900BFFFF709F800BF2CB942F201
:10237000117028800020BDE8F08126B942F29370E8
:1023800028800020F7E700BF00BFFFF75DF9804617
:1023900000BF00BFB749206888420BD000BF00BF14
:1023A0004046FFF755F900BF00BF42F28870288011
:1023B0000020E0E7206BB0420BD200BF00BF4046D8
:1023C000FFF746F900BF00BF42F29370288000205B
:1023D000D1E7606A58B900BF00BF4046FFF738F93F
:1023E00000BF00BF42F2DE7028800020C3E7E16A30
:1023F000606A88420BD900BF00BF4046FFF728F94A
:1024000000BF00BF42F2957028800020B3E7606AE9
:10241000401E6062D4E9080150F8217000BF00BF7F
:102420004046FFF715F900BF00BF42F21070288048
:102430003846A0E72DE9F04704460F4615464FF011
:1024400000091DB900BFFEF799FF00BF2CB942F289
:10245000117028800020BDE8F08700BF00BFFFF7A3
:10246000F3F8814600BF00BF8249206888420BD044
:1024700000BF00BF4846FFF7EBF800BF00BF42F2C5
:10248000887028800020E6E7E16A606A88420BD302
:1024900000BF00BF4846FFF7DBF800BF00BF42F2B5
:1024A000DD7028800020D6E7E06AC01B461EE06A87
:1024B000B0420BD800BF00BF4846FFF7C9F800BFC5
:1024C00000BF42F2957028800020C4E7606AB042E5
:1024D0000BD900BF00BF4846FFF7BAF800BF00BFE6
:1024E00042F2957028800020B5E7206A50F82680D7
:1024F00000BF00BF4846FFF7ABF800BF00BF42F285
:10250000107028804046A6E72DE9F04F02460C46A1
:102510009569D2F81CB0AC4201D35C4502D90020C9
:10252000BDE8F08F536BB5FBF3F003FB105111B115
:10253000A3EB010C01E04FF0000C176BB7FBF3F0BD
:1025400003FB107109B15E1A00E0002605EB0C08D0
:10255000A4EB080A07EB0609BAFBF9F009FB10A087
:1025600008B9012000E0002086467046D8E72DE932
:10257000F04704460F4615464FF0000A1DB900BF4C
:10258000FEF7FCFE00BF24B942F211702880BDE8BE
:10259000F0871FB942F211702880F8E700BF00BF32
:1025A000FFF752F8824600BF00BF324920688842D8
:1025B0000AD000BF00BF5046FFF74AF800BF00BF77
:1025C00042F288702880E2E739462046FFF79CFFF8
:1025D0008046B8F1010F0AD000BF00BF5046FFF798
:1025E00037F800BF00BF42F297702880CFE700267F
:1025F00010E0206A50F82600B8420AD100BF00BFA0
:102600005046FFF725F800BF00BF42F298702880BF
:10261000BDE7761C606AB042EBD8E16A606A884226
:102620000AD300BF00BF5046FFF712F800BF00BF3B
:1026300042F2DD702880AAE74FF00008666A08E0E1
:10264000206A50F82690B94502D14FF0010803E006
:10265000761CE06AB042F3D800BFB8F1010F11D187
:10266000D4E9080150F82100216A41F8260014E05D
:1026700010000020504F4F4CB2B0B1BAFEFFFEF830
:10268000080A0EFC00BF00BF5046FEF7E1FF00BF86
:1026900000BF42F28870288079E7D4E9080140F849
:1026A0002170606A401C606200BF00BF5046FEF7A8
:1026B000CFFF00BF00BF42F21070288000BF66E766
:1026C0002DE9F84F04460F461546002000904FF0C4
:1026D000FF3B1DB900BFFEF751FE00BF2CB942F20F
:1026E000117028805846BDE8F88F27B942F2117062
:1026F00028805846F7E700BF00BFFEF7A5FF00900F
:1027000000BF00BF3D49206888420BD000BF00BF1A
:102710000098FEF79DFF00BF00BF42F2887028803E
:102720005846E0E739462046FFF7EEFE8046B8F10E
:10273000010F0BD000BF00BF0098FEF789FF00BF5C
:1027400000BF42F2977028805846CCE7002611E07F
:10275000206A50F82600B8420BD100BF00BF009895
:10276000FEF776FF00BF00BF42F2987028805846FF
:10277000B9E7761C606AB042EAD8E16A606A8842CA
:102780000BD300BF00BF0098FEF762FF00BF00BF81
:1027900042F2DD7028805846A5E74FF00008666ACF
:1027A00008E0206A50F82690B94502D14FF00108A0
:1027B00003E0761CE06AB042F3D800BFB8F1010F25
:1027C0000FD1E06A401EA0EB060A00BF00BF0098D0
:1027D000FEF73EFF00BF00BF42F210702880504657
:1027E00081E700BF00BF0098FEF732FF00BF00BFC7
:1027F00042F288702880584675E70000504F4F4CD1
:1028000010B502460B461146002001E0491C401C51
:1028100019B10C780CB19842F8D310BD30B504460C
:102820004FF0FF312046FFF7EBFF0546284630BD4D
:1028300070B504460D4616460CB9002070BD0DB9A2
:102840000020FBE721462A46002304E010780870A8
:10285000491C521C5B1C21B11AB1107808B1B3425B
:10286000F4D301B10AB90020E8E7B34201D2002055
:1028700008702046E2E770B504460D464FF0FF327F
:1028800029462046FFF7D4FF0646304670BD70B596
:1028900003460C4615460BB9002070BD0CB900204C
:1028A000FBE70DB91846F8E7194600E0491C11B1DD
:1028B00008780028FAD109B90020EEE72246002660
:1028C00004E010780870491C521C761C21B11AB122
:1028D000107808B1AE42F4D301B10AB90020DCE7A8
:1028E000002008701846D8E770B504460D464FF032
:1028F000FF3229462046FFF7CAFF0646304670BD24
:102900002DE9F04305460B469446BCF1000F02D179
:102910000020BDE8F08335B90BB90020F9E718783D
:1029200042421046F5E713B92A781046F1E72946E6
:102930001C460F4626467F1C761C4FF0000805E01B
:10294000491C641C7F1C761C08F10108087894F867
:102950000090484505D1087818B117B10EB1E0458F
:10296000EED3E04501D10020D3E7087894F8009039
:10297000484505D0087894F80090A0EB09020BE0D8
:10298000087808B9002207E02FB90EB9002203E049
:102990003078424200E03A781046BAE770B5044613
:1029A0000D464FF0FF3229462046FFF7A9FF0646A5
:1029B000304670BD2DE9F74F82B080460E46049830
:1029C00018B9002005B0BDE8F08FB8F1000F09D1AB
:1029D0000EB90020F6E73078FEF744FF07467C4248
:1029E0002046EFE73EB998F80000FEF73BFF0546AA
:1029F0002C462046E6E7C146B246C846C346564680
:102A0000CDF804A0D8460BF1010B019E701C01907B
:102A1000C84699F80000FEF725FF054656469AF885
:102A20000000FEF71FFF07460020009015E009F1A7
:102A300001090AF1010A0BF1010B0198401C0190F8
:102A40000098401C009099F80000FEF70BFF054627
:102A50009AF80000FEF706FF0746BD420BD199F831
:102A6000000040B1BBF1000F05D0019818B10499E6
:102A700000988842DBD304990098884201D1002055
:102A8000A0E7BD4201D0EC1B16E00DB9002413E015
:102A9000BBF1000F0AD1019808B900240CE001999C
:102AA0000878FEF7DFFE07467C4205E09BF8000051
:102AB000FEF7D8FE05462C46204683E770B504464F
:102AC0000D464FF0FF3229462046FFF773FF0646BA
:102AD000304670BD30B504460B4615460CB9002093
:102AE00030BD0BB90020FBE72146002201E0491C64
:102AF000521C31B1087820B10878A84201D09A421E
:102B0000F5D309B90020EBE79A4201D30020E7E7AB
:102B10000878A84201D00020E2E70846E0E770B557
:102B200005460C4622464FF0FF312846FFF7D2FFFC
:102B30000646304670BD2DE9F04305460E46174661
:102B400015B90020BDE8F0830EB90020FAE72C4645
:102B5000A6F1010949462046FFF752FE804644444B
:102B60000CB90020EEE700E0641EAC4202D02078F1
:102B7000B842F9D12078B84201D00020E2E72046DF
:102B8000E0E770B505460C4622464FF0FF31284677
:102B9000FFF7D1FF0646304670BD70B504460D46BE
:102BA00016460CB9002070BD0BB90020FBE721468A
:102BB0001A4605E00878A84200D10E70491C521E42
:102BC00019B1087808B1002AF4D12046EBE7F0B536
:102BD00004460D4616464FF0FF333246294620463E
:102BE000FFF7DBFF07463846F0BD2DE9FF4F0646ED
:102BF0000F4615461EB9002004B0BDE8F08F0FB98E
:102C00000020F9E70DB90020F6E7681C00D001E0CC
:102C10004FF0FF30039029463046FFF7F1FD804624
:102C200038460399FFF7ECFD04460CB93046E3E75C
:102C3000444501D90020DFE706EB080BBBF1000F8C
:102C400001D10020D8E707EB040BBBF1000F01D145
:102C50000020D1E7A8EB040002904FF0000900200B
:102C6000019000BF06EB090000902246394600980B
:102C7000FFF746FE8246BAF1000F01D1012000E0C5
:102C80000020019009F10109019810B902988145CD
:102C9000E8D9BAF1000F01D00020ADE70098ABE70A
:102CA00070B504460D464FF0FF3229462046FFF727
:102CB0009CFF0646304670BD2DE9FF4F8DB00F4694
:102CC00015461A9E1D9818B9002011B0BDE8F08F66
:102CD00000200390012F01DA01200390022D01D37F
:102CE000242D01D90120039096B33046FEF756FDFE
:102CF00002900298012802D00120039028E0302E93
:102D000026D0A6F13000C0B207901B98012804D04D
:102D1000A6F14100C0B2069003E0A6F16100C0B286
:102D200006900A2D02D80798A84209DB0A2D09D976
:102D300007980A2804D3A5F10A000699884201D908
:102D4000012000E0002005900598012800D10390A3
:102D50001D9C0398002846D1DDF834A0DDF834A08E
:102D6000CDF830A001200B9007E00B98401CC0B2BA
:102D70000B900C98B0FBF5F00C900C98A842F4D294
:102D80001098012800D100E0002009900B990998C3
:102D90000844B84225DC002001900B98B84201DAC3
:102DA0000B9800E038460A903EB1B8460A98391AA6
:102DB0000998081AC0B2089006E0DDE90910084435
:102DC00000F0FF08002008900898002806DD302E4B
:102DD00001D1012000E00020049004E000200490D4
:102DE00001E001200390039800B1B84644441C98C8
:102DF00008B100202070641E4FF0000941E00398E4
:102E0000A8BBBAF1000F02D1B9F1000F1CD1BAFB77
:102E1000F5F005FB10A000F0FF0BBBF10A0F04D288
:102E20000BF1300004F801090BE01B98012804D0D5
:102E30000BF1370004F8010903E00BF1570004F827
:102E40000109BAFBF5FA1AE01098012810D104988C
:102E500008B9019828B1049850B1A8F1010048457B
:102E600006D12D2004F801090120019007E003E0BC
:102E70002EB104F8016902E03F2004F8010909F1CC
:102E80000109C145BBD3039808B100201DE71D9877
:102E90001BE72DE9FF5F05460E4617461C46DDE998
:102EA0000F9ADDF8388000233A46314628468DE8EF
:102EB0001007FFF701FF8346584604B0BDE8F09FB6
:102EC0002DE9FF4F85B0044689461F46DDE913AB67
:102ED000002C02DA6542012601E025460026129800
:102EE0003346CDE902ABCDE9007049462846079A42
:102EF000FFF7E2FE8046404609B0BDE8F08F2DE9BD
:102F0000FF4F8BB0064689461546B9F1000F02D136
:102F10000DF1240900BFC9F80060189810B907A87E
:102F2000189000BF0021189801701EB900200FB042
:102F3000BDE8F08F012D01D0242D01D90020F6E746
:102F400034462078FEF718FC039004E0641C2078D7
:102F5000FEF712FC039003980128F7D020782B2865
:102F600002D02D280BD103E0641C4FF0000B09E0C8
:102F70000E98012800D1641C4FF0010B02E04FF0C5
:102F8000000B00BF00BF0A9425B1082D1CD0102DE6
:102F900036D11EE02078302814D1641C20785828BF
:102FA00002D078280BD100BF102567783846FEF78D
:102FB000C7FB8246BAF1010F00D1641C01E008256D
:102FC00000BF00E00A251CE02078302800D1641CF6
:102FD00017E02078302812D1641C2078582802D0BD
:102FE00078280AD100BF67783846FEF7A9FB8246E9
:102FF000BAF1010F00D1641C00E000BF00BF00E087
:1030000000BF00BF4FF0000800200290019040E098
:1030100027783846FEF746FB05900598012836D1FB
:103020003846FEF779FB06900698012804D1A7F1EF
:103030003000C0B208900FE03846FEF759FB04900C
:103040000498012804D1A7F15700C0B2089003E00A
:10305000A7F13700C0B208900898A84214DA029885
:1030600080B9304850F82500404509D308FB05F8E1
:10307000089880440898804504D20120029001E01D
:1030800001200290641C04E00120019001E0012075
:10309000019001980028BBD00298012801D14FF07F
:1030A000FF380A98844202D0C9F8004001E0C9F80C
:1030B0000060189880F800B0404638E7F8B504463C
:1030C0000D4616460020034632462946009020460B
:1030D000FFF715FF07463846F8BD2DE9FC410546C8
:1030E0000E46174601A801233A463146009028466D
:1030F000FFF705FF04469DF8040040B9B4F1004F06
:1031000002D36FF0004000E02046804607E0B4F1B3
:10311000004F02D34FF0004000E06042804640463E
:10312000BDE8FC81E89C0008002800D17047002918
:1031300000D17047002A00D170472DE9F81F00F038
:10314000030301F00304A34211D1C3F1040303F00C
:103150000303012B1DD3012A00D2F2E011F8014B29
:1031600000F8014BA3F10103A2F10102F1E700F025
:10317000010301F00104A34200D094E0012B44D3E9
:1031800011F8014B00F8014BA3F10103A2F1010278
:10319000F4E7B2F5B47F26D3B1E8F81FA0E8F81F32
:1031A000B1E8F81FA0E8F81FB1E8F81FA0E8F81F81
:1031B000B1E8F81FA0E8F81FB1E8F81FA0E8F81F71
:1031C000B1E8F81FA0E8F81FB1E8F81FA0E8F81F61
:1031D000B1E8F81FA0E8F81FB1E8F81FA0E8F81F51
:1031E000A2F5B472D5E7282A06D3B1E8F81FA0E803
:1031F000F81FA2F12802F6E7042A06D351F8043B8F
:1032000040F8043BA2F10402F6E7202A42D331F849
:10321000023B20F8023B31F8023B20F8023B31F838
:10322000023B20F8023B31F8023B20F8023B31F828
:10323000023B20F8023B31F8023B20F8023B31F818
:10324000023B20F8023B31F8023B20F8023B31F808
:10325000023B20F8023B31F8023B20F8023B31F8F8
:10326000023B20F8023B31F8023B20F8023B31F8E8
:10327000023B20F8023B31F8023B20F8023B31F8D8
:10328000023B20F8023B31F8023B20F8023BA2F15E
:103290002002BAE7022A06D331F8023B20F8023BAB
:1032A000A2F10202F6E7102A42D311F8013B00F81E
:1032B000013B11F8013B00F8013B11F8013B00F81C
:1032C000013B11F8013B00F8013B11F8013B00F80C
:1032D000013B11F8013B00F8013B11F8013B00F8FC
:1032E000013B11F8013B00F8013B11F8013B00F8EC
:1032F000013B11F8013B00F8013B11F8013B00F8DC
:10330000013B11F8013B00F8013B11F8013B00F8CB
:10331000013B11F8013B00F8013B11F8013B00F8BB
:10332000013B11F8013B00F8013BA2F11002BAE7A2
:10333000012A06D311F8013B00F8013BA2F101027A
:10334000F6E7BDE8F81F704710B58A48006810B16D
:1033500088480068804710BD874A1168002002E055
:10336000002204C1401C854A12689042F8D3824A68
:103370001268824B1B6802EB8302121F804B1A609B
:10338000704710B57F48006810B17E4800688047DC
:1033900010BD10B504467C48006818B120467A4933
:1033A0000968884710BD10B504467848006818B110
:1033B000204676490968884710BD10B50446744810
:1033C000006818B1204672490968884710BDF0B5F9
:1033D0000446DDE9055602EB85004FF0807C071FAF
:1033E0003846C7F800C0071F38463C60DFF8A4C164
:1033F000071F3846C7F800C04FF0123C071F384679
:10340000C7F800C04FF0033C071F3846C7F800C09C
:103410004FF0023C071F3846C7F800C0071F384668
:103420003B60071F384639604FF0113C071F384694
:10343000C7F800C04FF0103C071F3846C7F800C05F
:103440004FF0093C071F3846C7F800C04FF0083C52
:10345000071F3846C7F800C04FF0073C071F384623
:10346000C7F800C04FF0063C071F3846C7F800C039
:103470004FF0053C071F3846C7F800C04FF0043C2A
:10348000071F3846C7F800C0F0BD10B542480068B5
:1034900010B1414800688047FDF708F804463F48EE
:1034A00000683F490968884215D03C480068D0F858
:1034B0009800201A39490968C1F894003748006813
:1034C000D0F89C0035490968D1F894100844334974
:1034D0000968C1F89C0032480068C0F898402F483D
:1034E0000068D0F8B4002F490968884205D22D48F9
:1034F00000682A490968C1F8B40000202949086019
:1035000010BD10B52848006810B1274800688047F2
:1035100010BD10B5002400BF00BFFEF795F80446AB
:1035200000BF00BF21480078401C2049087000BF40
:1035300000BF2046FEF78CF800BF00BF04F0F7FC88
:1035400000F02BF910BD01464A1E4FF0E0235A61EE
:10355000174A106820F07F4000BF10601A461269B9
:1035600042F005021A611A46126942F002021A611B
:103570007047000028000020A89D0008AC9D0008AE
:10358000140000202C0000201C000020200000203F
:1035900024000020BB77000830000020C800002075
:1035A000CC0000206C000020340000203C000020F3
:1035B00020ED00E070470000002400BF19E000BFCC
:1035C00000BFFEF741F8044600BF00BFF84800689E
:1035D000401CF7490860F7480068401CF54908603E
:1035E00000BF00BF2046FEF733F800BF00BFFFF763
:1035F000ABFEE4E710B58AB004460020EC49086051
:103600000B2000210591CDE9070406910846EA49FF
:103610000968EA4A1268EA4B1B68CDE90132CDE934
:1036200003100B200023AFF26F02E6A10090EA48DE
:1036300003F01DF90AB010BD00210AE001EB4102C0
:10364000E64B03EB820000220281026042604A1CCA
:10365000D1B20C29F2D3704770B50446FFF77CFE57
:103660000020DF490870DF490870DF490870DF4932
:103670000860DF490860DF490870DF490870DF49EA
:103680000870DF490860DF490860DF490860DF49EA
:103690000870DF4800680A21B0FBF1F0DD490860DE
:1036A000DD48006858B1DD48056845B1DA4806686C
:1036B00003E0761E002028602D1D002EF9D1002089
:1036C000D7490860D7490860D7490860D7490860DA
:1036D000D7490860D7490860D7490860D7490870BA
:1036E00001F03CFFFFF7A8FF204601F08CFA20888C
:1036F00000B170BD204601F0A2FB208800B1F8E7C0
:10370000204601F0ABFB208800B1F2E7204601F033
:1037100012FF208800B1ECE7204602F0E6F920888D
:1037200000B1E6E7204602F0B6FC208800B1E0E7F1
:10373000204604F039F8208800B1DAE72046FFF788
:1037400059FF208800B1D4E7204604F056F92088BC
:1037500000B1CEE7204602F022FF208800B1C8E782
:10376000204604F014FF208800B1C2E700F000FEFC
:10377000FFF720FF00BFBCE79A480078012800D07F
:10378000704797480078FA2800DBF9E794480078FA
:10379000401C9349087000BFF2E710B5002491481F
:1037A0000078012800D010BD00BFFDF74DFF044692
:1037B00000BF8B48007828B900BF2046FDF748FFBE
:1037C00000BFF0E786480078401E8549087008462B
:1037D0000078002805DD00BF2046FDF739FF00BF57
:1037E000E1E781480078002805DD00BF2046FDF7AD
:1037F0002FFF00BFD7E701F0BBFE7F4908700846E6
:10380000007800EB4000754951F8200078490860C5
:103810000846006875490968884205D100BF2046FE
:10382000FDF716FF00BFBEE771480068D0F89000B2
:10383000401C6F490968C1F8900081480068401C2D
:103840007F4908604FF080507E49086000BF2046E5
:10385000FDF7FEFE00BF00BFA5E710B500246048DD
:103860000078002800DD10BD5F480078002800DDEA
:10387000F9E700BFFDF7E8FE044600BF01F078FE5F
:103880005D4908700846007800EB4000534951F844
:103890002000574908600846006854490968884272
:1038A00005D100BF2046FDF7D3FE00BFDBE750483F
:1038B0000068D0F89000401C4D490968C1F890009C
:1038C0005F480068401C5E4908604FF080505D49C9
:1038D000086000BF2046FDF7BBFE00BF00BFC2E787
:1038E00010B541480078012803D1FCF7DFFD4449B9
:1038F000086010BD70B504460025394800780028DE
:1039000003DD46F66250208070BD364800780128FD
:1039100003D045F689602080F6E733480078FA281E
:1039200003DB45F209202080EEE700BF00BFFDF772
:103930008BFE054600BF00BF2B480078401C2A497B
:103940000870FFF7CDFF00BF00BF2846FDF780FEDF
:1039500000BF00BF0020208000BFD5E710B522487F
:10396000007880B9FCF7A2FD25490968441A25486A
:103970000068A04201D22348046023480068A042A6
:1039800001D22148046010BD70B5044600251448DA
:103990000078002803DD46F66550208070BD114890
:1039A0000078012850D045F689602080F6E70000B5
:1039B0003800002088000020849D0008809D0008B9
:1039C0007C9D000875432F4F532D49494920496478
:1039D0006C65205461736B003C2000200C2100209A
:1039E0003C0000203D00002070000020C8000020A6
:1039F000CC00002056000020570000205800002076
:103A000064000020680000206C0000207800002086
:103A1000DC9D000874000020AC9D0008A89D0008F3
:103A20001C0000202000002024000020280000208E
:103A30002C0000203000002034000020A6000020D0
:103A40009C00002004ED00E0F948007818B946F623
:103A500064502080A2E700BF00BFFDF7F5FD0546DA
:103A600000BF00BFF2480078401EF14908700846C8
:103A7000007800280ADD00BF00BF2846FDF7E8FDFA
:103A800000BF00BF46F66350208087E7FFF766FF60
:103A900000BF00BF2846FDF7DBFD00BF00BFFFF7FA
:103AA000DCFE0020208000BF78E72DE9F0410546CC
:103AB0000C461646002700BF00BFFDF7C5FD0746B0
:103AC00000BF00BF012D03D00020DA49087002E0DA
:103AD0000120D849087014B1D748046006E0D748DF
:103AE00000680A21B0FBF1F0D349086000BF00BFB5
:103AF0003846FDF7ADFD00BF00BF00203080BDE8B7
:103B0000F08110B501460C8924B1012C03D0022CA0
:103B10000CD101E000BF14E008684A68026100248B
:103B2000C4601461D0600A6048600AE008684A68AE
:103B3000C36800241C61C4600261D0600B604860EF
:103B400000BF00BF10BD2DE9F04104460027BC486E
:103B50000078002804DD48F2D1402080BDE8F081E3
:103B6000B3480078002803DD46F663502080F5E76F
:103B7000B0480078012803D046F67B102080EDE79E
:103B800000BF00BFFDF760FD074600BF00BFAD48A6
:103B9000007800EB4000AC4901EB80063089022838
:103BA0000ADA00BF00BF3846FDF752FD00BF00BF74
:103BB00046F67A102080D1E73046FFF7A2FF35683D
:103BC000686D18B99C480068A86501E0686DA86533
:103BD00000BF00BF3846FDF73BFD00BF00BFFFF749
:103BE0003CFE0020208000BFB8E710B5044697488F
:103BF0000078E8B901F0BCFC9549087008460078E7
:103C0000904908709248007800EB40008E4951F8C6
:103C1000200090490860084600688F49086001202C
:103C20008A49087005F08EFF43F69920208002E053
:103C300045F68A60208010BD01460020088047F2CA
:103C40005D60704730B548B14568C1F8C05000F1BB
:103C50000804226893681D6AC56113E091F8345026
:103C6000022D02D0072D08D103E07CA5C1F8C05079
:103C700007E07CA5C1F8C05003E07DA5C1F8C050A5
:103C800000BF00BF30BDF0B58E6896F83750078989
:103C90003FB90127078100274F600F600160416035
:103CA00023E007897F1C0781026806E0946894F886
:103CB0003770AF4200DD02E05268002AF6D100BF43
:103CC00032B900274F6043680B60596041600CE0D7
:103CD00017682FB9116000270F604A60016004E087
:103CE00013680B604A6059601160F0BD10B5C2875F
:103CF000016300230AE000244C600C600C614C61FD
:103D00000C83CC61886020315C1CA3B29342F2DB4F
:103D100010BD2DE9F041054695F8370000EB400055
:103D2000494901EB80042F69EE6887B946B9002044
:103D300020812060606095F8370001F03BFC0EE0C8
:103D40002089401E208100203061266007E0208904
:103D5000401E2081FE600EB9676000E037610020E0
:103D60002861E860BDE8F08138B504460D4685B1AC
:103D70006B4602222946204603F080FEBDF8000073
:103D800018B9032084F8360006E0022084F83600D3
:103D900002E0022084F836002046FFF7BAFF38BD63
:103DA0002DE9F04105460C4616461F462A48006894
:103DB00080F8346000202849096881F835003946C8
:103DC00025480068FFF7D0FF6CB104F10808EC60EB
:103DD0000122294620480068FFF788FF294640460F
:103DE000FFF751FF06E000201B490968C8871A4900
:103DF00009680863184801682046FFF723FFBDE8FB
:103E0000F08110B50489012C03D1002404604460C2
:103E100034E00C6824B94A680024146002602DE084
:103E20004C6824B90B6800245C60436026E021E004
:103E3000700000207800002074000020DC9D000845
:103E40003C000020560000200C2100203D000020F6
:103E500057000020CC000020C80000205461736B84
:103E6000205100005461736B2053656D0000000009
:103E7000200000000B684A685A6013600489641EC1
:103E8000048100244C600C6010BD2DE9F041044613
:103E9000256BE68F0AE0D5F80C8008F10807294663
:103EA0003846FFF7AEFF2035701E86B2002EF2DCDA
:103EB0000020E0872063BDE8F08130B50346086B41
:103EC000CC8F08E0C5689D4202D10361C26104E065
:103ED0002030651EACB2002CF4DC00BF30BD10B544
:103EE00090F8373003EB4303F84C04EB83010B8964
:103EF0003BB901230B810023C36003610860486064
:103F000009E00B895B1C0B810B68C3600023036114
:103F10000A681061086010BD10B590F8373003EBE7
:103F20004303EA4C04EB83010B893BB901230B816A
:103F30000023C36003610860486008E00B895B1CD4
:103F40000B810023C3604A680261D060486010BDE5
:103F500010B5044694F8370001F01CFB94F83700C4
:103F6000DB490978884203D12046FFF7D5FF02E0FC
:103F70002046FFF7B4FF10BD10B50446204603F0FD
:103F80003BFC94F8360010F0040F02D12046FFF7F6
:103F9000DFFF10BD70B505460C46164694F8360096
:103FA00008284DD2DFE800F00405080906072A2B8F
:103FB00000BF00BF00BF44E000BF94F834000328F6
:103FC00004D1324621462846FFF777FF0020E065FE
:103FD000A4F86000266415B12046FFF756FF20467E
:103FE000FFF7CAFF002004F13404A0704FF0010075
:103FF00060704FF0000004F8340922E000BF94F82C
:104000003400032804D1324621462846FFF755FFE5
:104010000020E065A4F86000266415B12046FFF793
:1040200034FF204603F0E8FB042004F13404A070C0
:104030004FF0010060704FF0000004F8340900E018
:1040400000BF00BF70BD30B5AFF2DC15C1F8C05085
:1040500000F1080422681AB193681D6AC56102E084
:10406000AFF2F415C56130BD2DE9F04304460F46AB
:1040700084F83770256BB4F83E8013E0D5F80C90C7
:1040800009F108063089012807D929463046FFF78B
:10409000B8FE29463046FFF7F6FD2035A8F10100AD
:1040A0001FFA80F8B8F1000FE8D1BDE8F0830021D5
:1040B000016041600181704703895B1C03810368D3
:1040C0004B6000230B60026802B11160016003893C
:1040D000012B00D14160704730B50346086BCC8F8F
:1040E00008E0C5689D4202D10361C26104E020304E
:1040F000651EACB2002CF4DC00BF30BD70B50646C6
:104100000C46154694F8360008284BD2DFE800F03C
:10411000040508090607292A00BF00BF00BF42E0C6
:1041200000BF94F83400032804D12A4621463046C3
:10413000FFF7D2FF0020E065A4F860002564204668
:10414000FFF7A3FE2046FFF717FF002004F1340419
:10415000A0704FF0020060704FF0000004F83409C6
:1041600021E000BF94F83400032804D12A462146F8
:104170003046FFF7B1FF0020E065A4F86000256439
:10418000204603F039FB2046FFF77FFE042004F1B0
:104190003404A0704FF0020060704FF0000004F88B
:1041A000340900E000BF00BF70BDF0B50446059EB5
:1041B000086BCD8F0AE0C768A74204D10461426151
:1041C0000383C66104E020306F1EBDB2002DF2DC17
:1041D00000BFF0BD2DE9F84306460C461746984649
:1041E000089D94F83600082853D2DFE800F0040553
:1041F000080906072C2D00BF00BF00BF4AE000BF22
:1042000094F83400032807D143463A462146304605
:104210000095FFF7CAFF03E0E765A4F86080256416
:1042200036B12046FFF731FE21463046FFF70BFF3F
:104230002046FFF7A1FE002004F13404A070607056
:1042400004F8340926E000BF94F83400032807D1AD
:1042500043463A46214630460095FFF7A6FF03E065
:10426000E765A4F860802564204603F0C5FA36B1FE
:104270002046FFF70AFE21463046FFF7E4FE042001
:1042800004F13404A0704FF00000607004F83409A9
:1042900000E000BF00BFBDE8F88370B5054600260A
:1042A0000C480078012800D070BD00BF00BFFDF7AA
:1042B000CBF9064600BF00BF2C686CB900BF00BF39
:1042C0003046FDF7C5F900BF00BFEDE70C21002027
:1042D00056000020780000202248844207D100BF09
:1042E00000BF3046FDF7B4F900BF00BFDCE7A06DAA
:1042F00010B1A06D401EA065A06D38B100BF00BF19
:104300003046FDF7A5F900BF00BFCDE72889022898
:1043100007DA00BF00BF3046FDF79AF900BF00BFC3
:10432000C2E711480078002807DD00BF00BF304613
:10433000FDF78EF900BF00BFB6E72846FFF7E1FBA7
:104340002C68606D18B909480068A06501E0606DCF
:10435000A06500BF00BF3046FDF77AF900BF00BF7F
:1043600000BFA1E73C200020700000207400002066
:10437000244A2549254A264A2649274A2748284AC1
:10438000284A294A294A2A482A482B4A2B482C4A93
:104390002C482D4A2D482E482E482F482F4A304A67
:1043A000304A3148314A324A324833483348344837
:1043B000344835483548364A364A374A374A384805
:1043C00038483948394A3A4A3A4A3B483B483C48D7
:1043D0003C493D483D4A3E4A3E4A3F4A3F4A404AA0
:1043E000404A4148414A424A42484348434A444A73
:1043F0004448454A454A46484648474800BF00BFEA
:1044000000BF7047209E0008889F0008219E00087A
:10441000229E0008249E0008289E00082C9E00086A
:10442000299E0008549E0008559E0008569E0008CC
:10443000589E00085A9E00085E9E0008609E000874
:10444000809E0008829E0008849E0008869E0008C8
:10445000889E00088A9E00088C9E0008B89E00086E
:10446000B99E0008BA9E0008BC9E0008BE9E0008C7
:10447000BF9E0008C09E0008C29E0008C49E00089F
:10448000C69E0008C89E0008CA9E0008CC9E000870
:10449000FC9E0008FD9E0008FE9E0008FF9E00088E
:1044A000009F0008029F0008049F00082C9F00083E
:1044B0002D9F00082E9F00082F9F0008309F0008A6
:1044C000329F0008349F0008389F0008399F000879
:1044D0003A9F00083B9F00083C9F00083D9F000852
:1044E0003E9F00083F9F0008409F0008429F000831
:1044F000439F0008449F0008469F0008489F00080B
:10450000499F00084C9F0008809F0008819F000879
:10451000829F0008849F0008869F0008FAA1C1615D
:1045200000214161F949096811B90021816105E063
:10453000F64909688161F54909684861F3490860ED
:1045400070472DE9F04104460F4616461D464FF0D0
:104550000008EF480078002804DD42F6E16028807A
:10456000BDE8F0811CB945F6C3502880F8E700BFCC
:1045700000BFFDF769F8804600BF00BFE548206036
:10458000676026620020606204F10800FFF78FFD7B
:104590002046FFF7C3FFE0480088401CDE49088042
:1045A00000BF00BF4046FDF753F800BF00BF00202A
:1045B000288000BFD4E72DE9F04106460F46144697
:1045C0001D46DDF81880D5480068C0F88040D34803
:1045D0000068A0F888500020D0490968C1F884001C
:1045E0004346012239463046FFF7DAFBBDE8F08149
:1045F0002DE9FF4F8BB0054689469846DDE91864E2
:1046000000200290C2480078002806DD46F2AE1075
:10461000208000200FB0BDE8F08F25B945F6C350CB
:1046200020800020F6E748F20101A8EB0100884550
:1046300037D01ADC40F20111A8EB010088452CD0DC
:104640000CDCB8F1010F24D0B8F1020F22D0B8F180
:10465000040F20D0B8F1080F2BD11DE001281DD088
:1046600003281CD0072824D11AE0B0F5807F1CD085
:1046700006DC012816D0032815D0072819D113E02D
:10468000A0F58070013811D0022810D0062810D172
:104690000EE000BF00BF00BF00BF00BF00BF00BFF3
:1046A00000BF00BF00BF00BF00BF00BF00BF00BF12
:1046B00004E045F6256020800020ABE700BF954967
:1046C0002868884204D045F6C45020800020A1E725
:1046D00018F4807F02D04FF0010A01E04FF0000A89
:1046E0000EB10020306008F00F0B00BF00BFFCF7D8
:1046F000ABFF029000BF00BFBBF1040F03D0BBF1C2
:10470000080F77D14BE0286A00EA09074F4517D117
:10471000BAF1010F02D1286AB84328627F480068C5
:10472000C0F884700EB1686A306000BF00BF0298A4
:10473000FCF78EFF00BF00BF00202080384669E7ED
:1047400018F4004F0BD000BF00BF0298FCF780FFA9
:1047500000BF00BF46F2B010208000205AE770482A
:10476000007800280BDD00BF00BF0298FCF770FF47
:1047700000BF00BF46F66350208000204AE70D9836
:1047800043464A462946009003A8FFF714FF00BF9E
:1047900000BF0298FCF75CFF00BF00BF57E0286A2B
:1047A00000EA0907BFB1BAF1010F02D1286AB84384
:1047B00028625A480068C0F884700EB1686A306098
:1047C00000BF00BF0298FCF743FF00BF00BF0020FE
:1047D000208038461EE718F4004F0CD000BF00BF01
:1047E0000298FCF735FF00BF00BF46F2B0102080F2
:1047F00000200FE71FE04A48007800280BDD00BFCB
:1048000000BF0298FCF724FF00BF00BF46F66350CC
:1048100020800020FEE60D9843464A462946009037
:1048200003A8FFF7C8FE00BF00BF0298FCF710FF07
:1048300000BF00BF0BE000BF00BF0298FCF708FFFD
:1048400000BF00BF45F6256020800020E2E600BFE3
:10485000FFF703F800BF00BFFCF7F6FE029000BFB1
:1048600000BF2E48006890F8350030B101280CD008
:10487000022828D0032836D117E01EB12748006847
:10488000006C30600020208038E01EB123480068B2
:10489000006C306000BF00BF0298FCF7D9FE00BF7B
:1048A00000BF46F2A910208028E00EB10020306041
:1048B00000BF00BF0298FCF7CBFE00BF00BF47F26D
:1048C000D92020801AE01EB114480068006C3060C6
:1048D00000BF00BF0298FCF7BBFE00BF00BF45F65B
:1048E000C25020800AE000BF00BF0298FCF7B0FE73
:1048F00000BF00BF46F62E60208000BF00BF2088AA
:1049000080B1002086E6000020000000400000206A
:104910003C000020464C414744000020C8000020D5
:1049200070000020C6480068D0F88470BAF1010F0A
:1049300018D1BBF1040F03D0BBF1080F05D100E083
:1049400000BF286AB84328620BE000BF00BF02988E
:10495000FCF77EFE00BF00BF45F6256020800020EA
:1049600058E600BF00BF00BF0298FCF771FE00BF11
:1049700000BF0020208038464CE670B50446002673
:10498000B0480078002804DD46F2AE1020800020F8
:1049900070BD00BF00BFFCF757FE064600BF00BF5A
:1049A000A7480068D0F8845000BF00BF3046FCF72D
:1049B0004FFE00BF00BF002020802846E8E770B50A
:1049C00004460E46154604F1340426654FF00000F7
:1049D00060702070E560A078A4F13404082816D235
:1049E000DFE800F0040508090706101100BF00BF4A
:1049F00000BF0DE000BF2046FFF7BEFA002084F89C
:104A0000360005E000BF042084F8360000E000BF57
:104A100000BF2046FFF739FA70BD2DE9F04F85B091
:104A20000446884691469A460E9F0020009000BF9B
:104A300000BFFCF709FE009000BF00BFB9F1000FF6
:104A40000BD0B9F1010F0ED0B9F5004F06D06FF4BD
:104A5000004019EB00000CD106E000BF206A40EADC
:104A60000800206213E000BF206A20EA08002062EC
:104A70000DE000BF00BF0098FCF7EAFD00BF00BFDB
:104A800045F625603880002005B0BDE8F08F00BFF6
:104A9000C4F824A004F1080001900198008950B9DD
:104AA00000BF00BF0098FCF7D3FD00BF00BF00208F
:104AB0003880206AE8E701980668B5683BE07068CE
:104AC0000290B5F8880000F00F00039003980428C6
:104AD00002D008281DD10EE0206AD5F8801000EA27
:104AE000010BD5F88000584504D152465946284656
:104AF000FFF765FF19E0206AD5F8801000EA010B86
:104B0000BBF1000F04D0524659462846FFF757FF25
:104B10000BE000BF00BF0098FCF79AFD00BF00BF8C
:104B200043F6FF2038800020AEE700BF029E0EB1A2
:104B3000B56800E00025002DC1D100BF00BF00987E
:104B4000FCF786FD00BF00BF19F4004F01D1FEF74E
:104B500084FE00BF00BFFCF777FD009000BF00BFE0
:104B6000206A049000BF00BF0098FCF771FD00BFF1
:104B700000BF00203880049886E72DE9F8430546F9
:104B8000884616461C462DB945F6C35020800020A5
:104B9000BDE8F8834EB1012E08D0B6F5004F06D01F
:104BA0006FF40040301804D102E000BF00BF00BF26
:104BB00004E045F6256020800020E9E700BF224997
:104BC0002868884204D045F6C45020800020DFE7E2
:104BD000FBF76CFC81464B46324641462846009422
:104BE000FFF71BFF07463846D2E770B50446174863
:104BF000206017A060600020206204F108052846AC
:104C0000FFF755FA70BD0021134A1160134A118055
:104C100001807047426981693AB90F4B196009B147
:104C200000234B610023836109E019B900239361DC
:104C3000436104E091614A610023836143617047ED
:104C4000C80000203C000020464C41474E4F4E45D6
:104C50003F464C4147000000400000204400002037
:104C6000002181617949096811B90021C16105E01C
:104C700076490968C16175490968886173490860A6
:104C800070472DE9FF4F83B0044615461F46DDE906
:104C90001096002000906E480078002805DD45F24F
:104CA000B960308007B0BDE8F08F1DB945F2BB6038
:104CB0003080F7E7022F03DA45F2BC603080F1E77D
:104CC000B9F1040F03D245F2C1603080EAE74FF03A
:104CD000030ABAF1000F0DD015EA0A0F03D045F20E
:104CE000BB603080DEE719EA0A0F03D045F2C160ED
:104CF0003080D7E7AB46A846781E80B201900020EE
:104D0000029007E0C844CBF80080C3460298401CDC
:104D100080B20290DDE901108842F3DB0020CBF87D
:104D2000000000BF00BFFCF78FFC009000BF00BF79
:104D3000484820600498A0606560E560A7826782AB
:104D4000A4F810902046FFF78BFF43480088401CD2
:104D50004149088000BF00BF0098FCF779FC00BF04
:104D600000BF0020308000BF9CE72DE9F0410446E1
:104D70000D4600272CB945F2BF6028800020BDE811
:104D8000F08100BF00BFFCF75FFC074600BF00BF1B
:104D9000A08A58B900BF00BF3846FCF759FC00BFD5
:104DA00000BF45F2C26028800020E8E7E66830686E
:104DB000E060A08A401EA08200BF00BF3846FCF71A
:104DC00047FC00BF00BF002028803046D7E72DE910
:104DD000F04104460E461546002724B945F2BF604F
:104DE0002880BDE8F0811EB945F2BE602880F8E752
:104DF00000BF00BFFCF728FC074600BF00BFA08A29
:104E0000618A88420ADB00BF00BF3846FCF720FCFD
:104E100000BF00BF45F2BA602880E2E7E06830607A
:104E2000E660A08A401CA08200BF00BF3846FCF7A5
:104E30000FFC00BF00BF0020288000BFD1E7002189
:104E4000024A1160044A1180018070474800002026
:104E50003C0000204D454D204C00002070B501461F
:104E6000844D2D681DB945F21E750D8070BD824DB3
:104E70002D881DB945F21D750D80F7E77D4D286819
:104E80002A6810327C4D2D886D1EACB2002308E0DC
:104E90000260002545600581C560103010325D1C40
:104EA000ABB2A342F4DB0025056045600581C56017
:104EB000704D2D68714E35606F4D2D88B580002581
:104EC000F58035810D8000BFD0E710B501464889D7
:104ED0004B89002B17DD0A68684B1B681360674C11
:104EE0004B6823602346DB884C891B1B634CE380A3
:104EF00023469B884C892344604CA38000234B812C
:104F00008B810B604B6010BD018100224281828148
:104F1000026042607047F0B504460D46608940B9B2
:104F20000020288002B1106046F2925018800020C4
:104F3000F0BD61684E68088928800AB1C8681060B1
:104F400008686060606818B900202060608102E035
:104F50006089401E608149480068086047480160D8
:104F60008088401C454FB8803846C088401EF88075
:104F7000002018803046DBE72DE9F0410D46DDE9E1
:104F80000674B0F80AC0B0F80880C44505DB46F2E4
:104F9000935CA4F800C0BDE8F081DFF8E0C0BCF885
:104FA00004C0BCF1000F04D145F21D7CA4F800C080
:104FB000F1E7DFF8C8C0DCF80010DFF8C080D1F8F6
:104FC00000C0C8F800C0C446BCF804C0ACF1010C75
:104FD000A8F804C0C446BCF806C00CF1010CA8F83F
:104FE00006C0C446BCF808C0B8F80680C44507DA55
:104FF000DFF888C0BCF806C0DFF88080A8F808C0D9
:10500000B0F80AC0BCF1000F0AD1016041604FF056
:10501000010CA0F80AC04FF0000CC1F800C015E068
:1050200013F0100F07D10668316001604FF0000CDB
:10503000C1F800C004E0D0F804C0C1F800C041606D
:10504000B0F80AC00CF1010CA0F80AC0B0F80CC00E
:10505000B0F80A80C44503DAB0F80AC0A0F80CC062
:105060004D600A81CF604FF0000CA4F800C000BF73
:1050700091E70000BC9D0008B49D000800210020BD
:10508000FEA1C16100214161FD49096811B90021FA
:10509000816105E0FA4909688161F9490968486157
:1050A000F749086070472DE9F04104460E46154661
:1050B0000027F4480078002804DD42F6E1602880EB
:1050C000BDE8F0811CB945F6C3502880F8E700BF61
:1050D00000BFFCF7B9FA074600BF00BFEA482060EE
:1050E00066600020206284F82500A0620C2084F80D
:1050F000240004F10800FEF7DAFF2046FFF7C0FFA6
:10510000E2480088401CE149088000BF00BF3846E3
:10511000FCF79EFA00BF00BF0020288000BFCFE749
:105120002DE9F04788B00546894690461C46109EFA
:105130004FF0000AD3480078002805DD46F2AE1093
:10514000308008B0BDE8F0871DB945F6C350308007
:10515000F7E7B8F1000F03D0B8F5004F02D100E037
:1051600000BF03E045F625603080EAE700BFC6498E
:105170002868884203D045F6C4503080E1E70CB17E
:105180000020206000BF00BFFCF75EFA824600BF2F
:1051900000BF95F82500C0B9BD4800682862BC482A
:1051A000006890F8370085F82400012085F8250074
:1051B0000CB1A86A206000BF00BF5046FCF748FA57
:1051C00000BF00BF00203080BBE7B149286A0968F2
:1051D000884212D195F82500401C85F825000CB1B5
:1051E000A86A206000BF00BF5046FCF731FA00BF3C
:1051F00000BF45F282703080A3E718F4004F0AD058
:1052000000BF00BF5046FCF723FA00BF00BF46F2C4
:10521000B010308095E79F48007800280ADD00BF75
:1052200000BF5046FCF714FA00BF00BF46F66350BB
:10523000308086E72F6A97F837009549096891F81A
:10524000371088423ADD97F8360008282AD2DFE87E
:1052500000F004151E1F171620213846FEF759FDD1
:105260008B48006890F8370087F8370097F83700C8
:1052700000F090F93846FEF732FE1EE000BF00BF96
:105280008348006890F8370087F8370015E000BFC2
:1052900000BF00BF7E48006890F837103846FEF720
:1052A000E3FE0AE000BF00BF5046FCF7D1F900BFA3
:1052B00000BF46F62D60308043E700BF4B46042216
:1052C00029466846FEF76CFD00BF00BF5046FCF75C
:1052D000BFF900BF00BFFEF7C0FA00BF00BFFCF778
:1052E000B3F9824600BF00BF6948006890F83500F6
:1052F00030B101280CD002281AD0032821D110E0A7
:105300001CB163480068006C2060002030801CE005
:105310001CB15F480068006C206046F2A910308024
:1053200013E00CB10020206047F2D92030800CE05F
:105330001CB157480068006C206045F6C2503080B0
:1053400003E046F62E60308000BF00BF00BF00BF04
:105350005046FCF77DF900BF00BF00BFF1E62DE924
:10536000F84F0446884615464FF0000A4548007835
:10537000002804DD46F20E202880BDE8F88F1CB915
:1053800045F6C3502880F8E7B8F1000F03D0B8F510
:10539000004F02D100E000BF03E045F62560288001
:1053A000EBE700BF38492068884203D045F6C45077
:1053B0002880E2E700BF00BFFCF746F9824600BF45
:1053C00000BF3349206A096888420AD000BF00BF85
:1053D0005046FCF73DF900BF00BF45F281702880C0
:1053E000CBE7FBF763F8074604F1240467606078B5
:1053F000A0F1010060706078A4F1240400280ADDA7
:1054000000BF00BF5046FCF723F900BF00BF45F2C4
:1054100083702880B1E704F10809B9F8080068B979
:105420000020206284F8250000BF00BF5046FCF732
:105430000FF900BF00BF002028809EE714480068D5
:1054400090F8370094F82410884229D0104800685A
:10545000FEF75FFC94F824000D49096881F83700D5
:105460000B49096891F8370000F094F80848006883
:10547000FEF752FD064800680EE000002000000024
:10548000500000203C0000204D555458540000208E
:10549000C80000207000002090F8370029490870EB
:1054A000D9F800008668266296F8370084F8240050
:1054B000012084F8250000231A4631462046009733
:1054C000FEF788FE00BF00BF5046FCF7C1F800BFE2
:1054D00000BF18F4004F01D1FEF7BFF9002028806B
:1054E00000BF4AE710B504461748206017A0606067
:1054F0000020206284F82500A0620C2084F824009B
:1055000004F10800FEF7D3FD10BD426981693AB984
:10551000104B196009B100234B610023836109E03E
:1055200019B900239361436104E091614A6100234A
:105530008361436170470021064A1160064A118069
:1055400001807047560000204E4F4E453F4D555448
:10555000455800005000002054000020002004E0C6
:1055600000211C4A42F82010401C0028F8D0704747
:1055700070B50025174C03E005F12000C5B2241DCD
:1055800020680028F8D02068FCF769F82844C5B2E4
:10559000284670BD30B5420900F01F030121C3F158
:1055A0001F04A1400B4C54F822400C43094D45F810
:1055B000224030BD30B5420900F01F030121C3F184
:1055C0001F04A140034C54F822408C43014D45F880
:1055D000224030BD18000020FEA1C16100214161C0
:1055E000FD49096811B90021816105E0FA4909689E
:1055F0008161F94909684861F749086070472DE9F8
:10560000F04104460F4616461D464FF00008F34889
:105610000078002804DD42F6E1602880BDE8F081D2
:105620001CB945F6C3502880F8E71EB946F29450DD
:105630002880F3E700BF00BFFCF706F8804600BFF4
:1056400000BFE74820606760314604F12000FFF7A3
:105650005BFC04F10800FEF72AFD2046FFF7BCFFC3
:10566000E0480088401CDF49088000BF00BF40467A
:10567000FBF7EEFF00BF00BF0020288000BFCDE792
:105680002DE9F04F89B00746894690461E46DDE970
:1056900012544FF0000BD1480078002806DD46F286
:1056A000AE102080002009B0BDE8F08F27B945F684
:1056B000C35020800020F6E726B946F2D52020808E
:1056C0000020F0E7B8F1000F03D0B8F5004F02D189
:1056D00000E000BF04E045F6256020800020E2E7FE
:1056E00000BFBF493868884204D045F6C4502080C6
:1056F0000020D8E70DB10020286000BF00BFFBF7F5
:10570000A3FF834600BF00BF23462A46314607F168
:105710002000FFF700FC8246208840B900BF00BF90
:105720005846FBF795FF00BF00BF5046BBE718F493
:10573000004F0BD000BF00BF5846FBF789FF00BFEA
:1057400000BF46F2B01020800020ACE7A6480078E9
:1057500000280BDD00BF00BF5846FBF779FF00BFF4
:1057600000BF46F66350208000209CE74B46052290
:10577000394601A8FEF714FB00BF00BF5846FBF7EF
:1057800067FF00BF00BFFEF768F800BF00BFFBF770
:105790005BFF834600BF00BF9448006890F8350067
:1057A00030B1012815D002282AD0032835D11DE0B8
:1057B0008E480068D0F85CA08C480068B0F86000A3
:1057C00030801DB189480068006C2860002020806E
:1057D0002BE04FF0000A002030801DB183480068A4
:1057E000006C286046F2A91020801EE04FF0000AED
:1057F0000020308005B1286047F2D920208014E0D5
:105800004FF0000A002030801DB178480068006C1D
:10581000286045F6C250208007E04FF0000A0020C3
:10582000308046F62E60208000BF00BF00BF00BF62
:105830005846FBF70DFF00BF00BF504633E72DE988
:10584000F05F05460E4614464FF0000A63480078A4
:10585000002805DD46F2AA1020800020BDE8F09F58
:1058600025B945F6C35020800020F7E74EB1B6F5C4
:10587000807F07D0B6F5004F05D0B6F5014F04D1B3
:1058800002E000BF00BF00BF04E045F625602080B5
:105890000020E3E700BF52492868884204D045F65B
:1058A000C45020800020D9E700BF00BFFBF7CCFE2A
:1058B000824600BF00BF05F10807388958B900BF0C
:1058C00000BF5046FBF7C4FE00BF00BF46F2AB105E
:1058D00020800020C2E74FF00008FAF7E7FD83467A
:1058E0000FE03868D0F808905A4649462846FEF737
:1058F00051FB08F101001FFA80F8B6F5807F00D057
:1059000002E038890028ECDC00BF00BF00BF504631
:10591000FBF79EFE00BF00BF16F4004F01D1FDF75C
:105920009CFF00202080404698E72DE9F04F85B08D
:1059300007468A4693461C460020029000BF00BFDF
:10594000FBF782FE029000BF00BF07F10806308916
:10595000E0B914F0100F02D14FF0000801E04FF051
:105960001008DDE90E0143465A46CDE900015146D3
:1059700007F12000FFF700FB00BF00BF0298FBF714
:1059800067FE00BF00BF05B0BDE8F08F14F4007FD4
:1059900001D0358900E00125D6F8009011E0D9F852
:1059A00008000390D9F8040004900E985B46524614
:1059B000009038460399FEF70DFCDDF81090681E44
:1059C00085B2002DEBD100BF00BF0298FBF740FE6F
:1059D00000BF0DE0200000005C0000203C00002023
:1059E000515545556000002070000020C80000207F
:1059F00000BF14F4004F01D1FDF72FFF00210F98D5
:105A0000018000BFBFE72DE9FC4705468846914667
:105A10001E460A9C25B945F6C3502080BDE8FC8788
:105A2000B6F5004F19D009DC9EB1102E12D0B6F594
:105A3000007F10D0B6F5047F13D10DE0A6F500402D
:105A400010380BD0B0F5F87F09D0B0F5007F08D141
:105A500006E000BF00BF00BF00BF00BF00BF00BF27
:105A600003E045F625602080D8E700BF224928687A
:105A7000884203D045F6C4502080CFE7FAF716FDE0
:105A8000074633464A4641462846CDE90074FFF7AB
:105A90004CFF00BFC2E710B5044604F12000FFF739
:105AA00014FA1648206016A06060002104F120005E
:105AB000FFF72AFA04F10800FEF7F9FA10BD42696F
:105AC00081693AB90F4B196009B100234B6100237A
:105AD000836109E019B900239361436104E0916196
